:1000000005EF0BF00000000000EF00F00000000022
:0A0010000000000000000000F3D71C
:0C001C00060E0D6E0D2EFED70000120027
:0A002800F9DF8A88F7DF8A981200DA
:06003200000000001200B6
:10003800120E006E000E016E830E0024E16E0F0E8C
:100048000120E26EFF0EE66EF0DFEFDF8A848A9809
:100058008A868A88DFDF83CF9DF18A988A96E5DFD2
:10006800E4DF120E006E000E016E830E0024E16EB6
:0E0078000F0E0120E26EE66A9DC100F012003C
:0E0086008A988A848A969DC183FFCBDF120080
:100094007F0E01019D15016E01C09DF101AC03D0DD
:0C00A4008A808A9202D08A908A82120020
:1000B0008A948A96B80E01019D11836EB5DF1200F5
:1000C0007F0E01019D15006E00C09DF18A948A96F5
:1000D000BF0E001600C09DF1008C00C09DF100C055
:0600E00083FFA2DF120005
:1000E600000E0101975D0AE397517F0807E3000EB2
:1000F600985D04E398513F0801E301D04AD097C1C7
:100106009DF1C5DF98C19DF19D339D9F9D339D9FB8
:100116009D339D9FCADF97C19DF1CFDF8ADF00C067
:100126009CF187DF00C09CF198C19DF19D339D9F96
:100136009D339D9F9D339D9FB8DF97C19DF1BDDF88
:10014600070E9815006E00C09AF100C001F0010E6E
:10015600006E015004E000360090FF0FFBD700C090
:100166009AF1001C9B6F09D09B519C170FD09A5196
:100176009C130CD09A519C1B09D09951000AF4E0AB
:100186009951010AF4E09951020AF4E09CC19DF1EB
:0401960077DF1200FD
:10019A00000E0101945D04E394517F0801E301D04C
:1001AA0027D0000E925DD8A0926B92513F0802E2CE
:1001BA003F0E926F000E935DD8A0936B93513F0848
:1001CA0002E23F0E936F9251935D06E292C196F15D
:1001DA0093C192F196C193F19251935D09E394C14F
:1001EA0097F192C198F195C199F178DF922BF4D7E2
:0201FA001200F1
:1001FC000B6A0A6A096A00500402F4CF09F0F3CFC3
:10020C0008F001500502F4CF0BF0F3CF0AF00050C8
:10021C000502F3500926F4500A22E86A0B22015019
:10022C000402F3500926F4500A22E86A0B2208C093
:10023C0000F009C001F00AC002F00BC003F012007C
:10024C0001018A51070801E282D07351885D006E6A
:10025C0074C101F0000E01565DC104F0000E056E74
:10026C00C7DF00C090F101C091F189C19DF122DF7F
:10027C008AC19DF117DF8C6B5D518C5D49E2895110
:10028C007F0801E264D089C19DF1FEDE8AC19DF137
:10029C0009DF89C19DF10EDFC9DE00C08DF1C6DE1C
:1002AC0000C08DF189C19DF1EFDE8AC19DF1FADEAE
:1002BC0089C19DF1FFDE90515E25F66E91515F2153
:1002CC00F76E000E91BFFF0E6021F86E0900F5CF9E
:1002DC0000F000C08EF1904B912B001C8F6F09D059
:1002EC008FC18DF10FD08EC18DF10CD08E518D1B25
:1002FC0009D08B51000AF4E08B51010AF4E08B51C8
:10030C00020AF4E08DC19DF1B8DE892B8C2BB4D799
:10031C0089C19DF1B9DE8AC19DF1C4DE89C19DF10F
:10032C00C9DEFF0E8E6F8F6B0CD08EC18DF18EC11E
:10033C009DF1A3DE0CD08FC18DF18FC19DF19DDE9F
:10034C0006D08B51000AF1E08B51010AF4E0120047
:10035C0089C192F1060E01018925936F88C194F130
:10036C008AC195F114DF89C192F1060E8925936F2C
:10037C008851010F946F8AC195F109DF89C192F1FF
:10038C00060E8925936F020E8825946F8AC195F10C
:10039C00FEDE89C192F1060E8925936F030E882526
:1003AC00946F8AC195F1F3DE89C192F1060E89250D
:1003BC00936F040E8825946F8AC195F1E8DE880549
:1003CC00976F060E8925986F8AC199F186DE88058C
:1003DC00976F050E8925986F8AC199F17EDE020E02
:1003EC00885D976F060E8925986F8AC199F175DE25
:1003FC00050E8825976F060E8925986F8AC199F18D
:10040C006CDE050E8825976F050E8925986F8AC1BD
:10041C0099F163DE060E8825976F060E8925986F75
:10042C008AC199F15ADE050E8825976F060E89252B
:0A043C00986F8AC199F151DE120099
:0E044600ACB202D00000FCD788C1ADFF12009E
:10045400020E0C6E490E0D6E0D2EFED70C2EFCD71F
:0604640000000000120080
:0A046A00000EACB2010E006E12008D
:10047400AECF01F0ABA202D0AB98AB8801C000F0C4
:02048400120064
:0A048600000E9EBA010E006E120077
:100490000101876B83C101F0010E006E015004E081
:1004A00000360090FF0FFBD700C086F181C1E9FF45
:1004B00082C1EAFF0050EE14016E0152010ED8A471
:1004C000000E006E8551001A18E08451000804E205
:1004D000C1DFC0DF8407F9D781C1E9FF82C1EAFF2C
:1004E0008651EE14016E0152010ED8A4000E006E6A
:1004F0008551001A02E0FF0E876F87C100F01200DD
:100500008A908A820101836B835107080EE383C1BD
:100510009DF1CEDD826B82513F0805E381C19DF1E3
:10052000B2DD822BF8D7832BEFD78A928A80836B38
:10053000835107080EE383C19DF1BADD826B8251BE
:100540003F0805E381C19DF19EDD822BF8D7832B07
:04055000EFD71200CF
:100554000101866B5B51000A0EE1050E5D6F070E0B
:100564005C6FBC0E5E6F1B0E5F6F000E606F200E23
:10057400736F000E746F86518125E96E000E82211F
:10058400EA6EEE5216E086518125E96E000E822154
:10059400EA6EEECF88F183C189F184C18AF185C105
:1005A4008BF152DE5D51010F006E00508327862BC4
:0405B400E2D7120078
:1005B8000001A551030A05E001018351010A01E088
:1005C800FED001018251020A47E181C100F0000E0C
:1005D800016E003600900136FE0E0026000E012244
:1005E800010E0024E96E000E0120EA6E390EEE5C61
:1005F80014E381C100F0000E016E00360090013650
:10060800FE0E0026000E0122010E0024E16E000EEF
:100618000120E26E390EE66E1ED081C100F0000E98
:10062800016E003600900136FE0E0026000E0122F3
:10063800010E0024026E000E0120036E02C0E9FFC5
:1006480003C0EAFF020EEE24006E02C0E1FF03C001
:10065800E2FF00C0E6FFB3D001018251010AD8A42D
:10066800AED081C100F0000E016E00360090013658
:10067800FE0E0026000E0122010E0024E96E000E77
:100688000120EA6EEE500308D8A07BD04A0E016E16
:10069800000E026E81510126D8B0022A01C0E9FF7E
:1006A80002C0EAFFEE50010F006E01C0E1FF02C078
:1006B800E2FF00C0E6FF81C100F0000E016E0036C7
:1006C80000900136FE0E0026000E012200C0E9FF50
:1006D80001C0EAFFEECF88F1010E0024E96E000E9A
:1006E8000120EA6EEECF89F18A6B34DE8151000A6F
:1006F80022E181C100F0000E016E00360090013643
:10070800FE0E0024E16E000E0120E26E280EE66E59
:1007180081C100F0000E016E003600900136FE0E19
:100728000026000E0122010E0024E16E000E0120B9
:10073800E26E390EE66E8151010A22E181C100F0B4
:10074800000E016E003600900136FE0E0024E16EA8
:10075800000E0120E26E500EE66E81C100F0000E20
:10076800016E003600900136FE0E0026000E0122B2
:10077800010E0024E16E000E0120E26E390EE66ED5
:100788001ED081C100F0000E016E003600900136C7
:10079800FE0E0026000E0122010E0024026E000E3D
:1007A8000120036E02C0E9FF03C0EAFF020EEE5CFF
:1007B800006E02C0E1FF03C0E2FF00C0E6FF1200C6
:0C07C8000E0E0D6E0D2EFED7000012006C
:1007D4000101846B81C1E9FF82C1EAFFEECF83F19D
:1007E4008351000A0EE083C188F12BDE0101842BC2
:1007F40084518125E96E000E8221EA6EEECF83F1E9
:04080400EFD7120018
:1008080000C124F001C125F001C115F000C188F133
:1008180001C189F101018A6B9DDD010E816F010E15
:10082800826F010E836FC4DE00C188F101C189F1B6
:10083800010E01018A6F8EDD0A0E245E040E255E0C
:10084800796B79510E08D8A0CAD0060E006E000E3A
:10085800016E79C104F0000E056ECCDC020E002496
:10086800E96E010E0120EA6EEECF01F02450015C22
:10087800D8A0B3D0060E006E000E016E79C104F048
:10088800000E056EB7DC020E0024E96E010E012091
:10089800EA6EEECF03F00A0E0025016E026A000E22
:1008A8000222800E0218006E800E005C02E10350E6
:1008B800015CD8A092D0060E006E000E016E79C1C0
:1008C80004F0000E056E96DC020E0026010E0122D1
:1008D800010E0024E96E000E0120EA6E2550EE5C40
:1008E800D8A07BD0060E006E000E016E79C104F010
:1008F800000E056E7FDC020E0026010E0122010E9D
:100908000024E96E000E0120EA6EEECF03F0060E19
:100918000125016E026A000E0222800E0218006E86
:10092800800E005C02E10350015C57E3060E006E86
:10093800000E016E79C104F0000E056E5BDC020E3C
:100948000026010E0122010E0024E96E000E01208E
:10095800EA6EEE50155C16E300C188F101C189F119
:100968008A6BF8DC010E816F020E826F010E836FB5
:100978001FDE00C188F101C189F1010E01018A6FF2
:10098800E9DC2BD0060E006E000E016E79C104F072
:10099800000E056E2FDC020E0026010E0122010E4C
:1009A8000024E96E000E0120EA6EEE50155C15E297
:1009B80000C188F101C189F18A6BCCDC010E816F1D
:1009C800010E826F010E836FF3DD00C188F101C152
:1009D80089F1010E01018A6FBDDC792B32D7120033
:1009E800460E01016B6F040E6C6F880E6D6F010E61
:1009F8006E6F740E6F6F040E706F000E716F000EC5
:100A0800726F860E636F040E646F000E656F000EC2
:100A1800666F6A0E676F040E686F000E696F000ECE
:100A28006A6FAC8A900EAB6E948E949C9EAA03D08B
:080A3800AECF00F0FBD7120065
:100A400001015B6B616B626B939A9398939493969D
:100A5000939093928A9A120E006E000E016E830E8E
:100A60000024E16E0F0E0120E26EE66A8A948A96F7
:100A70008A908A828A8A3F0E836E14EC00F0C00E40
:100A8000836E14EC00F08A808A923F0E836E14EC21
:0C0A900000F0C00E836E14EC00F01200A9
:100A9C000900F5CFE6FF0006FBE10106F9E11200C3
:100AAC00020E0101036F020E026F020E056F040E9F
:100ABC00096F220E086F010E0B6F320E0F6F320E84
:100ACC000E6F020E116F100E156F570E146F020E73
:100ADC00176F220E1B6F1E0E1A6F010E1D6F0C0E60
:100AEC00216F780E206F020E236F180E276F5F0E8A
:100AFC00266F010E296F140E2D6F430E2C6F010EF5
:100B0C002F6F1E0E336F5D0E326F010E356F1C0E84
:100B1C00396F520E386F020E3B6F260E3F6F430E2D
:100B2C003E6F010E416F2A0E456F050E446F010E8C
:100B3C00476F2E0E4B6F0A0E4A6F010E4D6F080E4B
:100B4C00516F4C0E506F020E536F360E576F140EC2
:080B5C00566F010E596F1200E3
:100B6400C26A0001931D006E0050C116070EC01228
:100B7400C08E79C100F0003600900036009000501D
:100B8400C212C2801FDEC282C2A201D0FDD7C4CF6E
:100B940001F0006AC3500012000E0112C29012004C
:100BA400280E0001FE6F390EFF6F500E0101006F19
:100BB400390E016F4A6A4B6A400E406E280E886FE8
:100BC400390E896F010E8A6FAEEC01F000C188F115
:0E0BD40001C189F1010E8A6FAEEC01F0120032
:100BE2000101926B40C093F1400E946F956BCDEC76
:100BF20000F0400E926F40C093F1400E946F010ED0
:080C0200956FCDEC00F012002B
:100C0A005450030A05E001017951010A01E0BFD2FB
:100C1A0001017B6B7B510E08D8A0B9D2060E006E7B
:100C2A00000E016E7BC104F0000E056EFEEC00F0B2
:100C3A00020E0026010E0122030E0024E96E000EA8
:100C4A000120EA6EEE50010AD8A4A4D0060E006E66
:100C5A00000E016E7BC104F0000E056EFEEC00F082
:100C6A00020E0026010E012200C0E9FF01C0EAFFC0
:100C7A00EECF97F1010E0024E96E000E0120EA6E14
:100C8A00EECF98F1996B73EC00F0060E006E000E31
:100C9A00016E7BC104F0000E056EFEEC00F0020E40
:100CAA000024026E010E0120036E02C0E9FF03C098
:100CBA00EAFFEECF00F0020E005E02C0E1FF03C0C1
:100CCA00E2FF00C0E6FF060E006E000E016E7BC159
:100CDA0004F0000E056EFEEC00F0020E0026010E76
:100CEA00012200C0E9FF01C0EAFFEECF97F1010E31
:100CFA000024E96E000E0120EA6EEECF98F1010E93
:100D0A00996F73EC00F0060E006E000E016E7BC147
:100D1A0004F0000E056EFEEC00F0020E0024E96EEF
:100D2A00010E0120EA6EEECF01F00150000831E316
:100D3A00060E006E000E016E7BC104F0000E056EF9
:100D4A00FEEC00F0020E0026010E012200C0E9FFAF
:100D5A0001C0EAFFEECF97F1010E0024E96E000E02
:100D6A000120EA6EEECF98F1996B73EC00F0060E53
:100D7A00006E000E016E7BC104F0000E056EFEECE3
:100D8A0000F0020E0024E16E010E0120E26E800ED8
:100D9A00E66EBAD0060E006E000E016E7BC104F03C
:100DAA00000E056EFEEC00F0020E0026010E012276
:100DBA00030E0024E96E000E0120EA6EEE50020ACC
:100DCA00D8A4A2D0060E006E000E016E7BC104F0FC
:100DDA00000E056EFEEC00F0020E0026010E012246
:100DEA0000C0E9FF01C0EAFFEECF97F1010E00242F
:100DFA00E96E000E0120EA6EEECF98F1996B73EC62
:100E0A0000F0060E006E000E016E7BC104F0000EAB
:100E1A00056EFEEC00F0020E0024026E010E0120A7
:100E2A00036E02C0E9FF03C0EAFFEECF00F0020E34
:100E3A00002602C0E1FF03C0E2FF00C0E6FF060E83
:100E4A00006E000E016E7BC104F0000E056EFEEC12
:100E5A0000F0020E0026010E012200C0E9FF01C0C7
:100E6A00EAFFEECF97F1010E0024E96E000E012091
:100E7A00EA6EEECF98F1010E996F73EC00F0060E50
:100E8A00006E000E016E7BC104F0000E056EFEECD2
:100E9A0000F0020E0024E96E010E0120EA6EEECF88
:100EAA0001F0800E015C30E3060E006E000E016E4A
:100EBA007BC104F0000E056EFEEC00F0020E002667
:100ECA00010E012200C0E9FF01C0EAFFEECF97F14F
:100EDA00010E0024E96E000E0120EA6EEECF98F1B1
:100EEA00996B73EC00F0060E006E000E016E7BC16A
:100EFA0004F0000E056EFEEC00F0020E0024E16E16
:100F0A00010E0120E26EE66A7A6B020E7A5DD8B0B3
:100F1A003CD1060E006E000E016E7BC104F0000E7D
:100F2A00056EFEEC00F0020E0026010E0122010EF3
:100F3A000024E96E000E0120EA6E7AC100F0000E6C
:100F4A00016E003600900136FE0E0026000E0122C8
:100F5A00010E0024D96E000E0120DA6EDE50EE5C1E
:100F6A00D8A011D1060E006E000E016E7BC104F0EE
:100F7A00000E056EFEEC00F0020E0026010E0122A4
:100F8A00010E0024E96E000E0120EA6EEECF03F096
:100F9A007AC100F0000E016E003600900136FE0E96
:100FAA000026000E0122010E0024E96E000E012027
:100FBA00EA6E060EEE24016E026A000E0222800E0E
:100FCA000218006E800E005C02E10350015CD8A09A
:100FDA00DAD0060E006E000E016E7BC104F0000E20
:100FEA00056EFEEC00F0020E0024E96E010E0120EF
:100FFA00EA6EEECF03F07AC100F0000E016E003601
:10100A0000900136FE0E0024D96E000E0120DA6E21
:10101A00DECF01F00150035CD8A0B5D0060E006EF9
:10102A00000E016E7BC104F0000E056EFEEC00F0AE
:10103A00020E0024E96E010E0120EA6EEECF03F0E3
:10104A007AC100F0000E016E003600900136FE0EE5
:10105A000024E96E000E0120EA6EEECF00F0060EC3
:10106A000024016E026A000E0222800E0218006E2F
:10107A00800E005C02E10350015CD8A084D07AC1E2
:10108A0000F0000E016E003600900136FE0E0026BA
:10109A00000E012200C0E9FF01C0EAFFEECF88F18D
:1010AA00010E0024E96E000E0120EA6EEECF89F1EE
:1010BA008A6BAEEC01F07A51000A23E17AC100F0A2
:1010CA00000E016E003600900136FE0E0024E16E1D
:1010DA00000E0120E26E280EE66E7AC100F0000EC4
:1010EA00016E003600900136FE0E0026000E012227
:1010FA00010E0024E16E000E0120E26E390EE66E4A
:10110A0025D07A51010A22E17AC100F0000E016E5F
:10111A00003600900136FE0E0024E16E000E01201A
:10112A00E26E500EE66E7AC100F0000E016E0036D5
:10113A0000900136FE0E0026000E0122010E002448
:10114A00E16E000E0120E26E390EE66E7AC100F001
:10115A00000E016E003600900136FE0E0026000ECB
:10116A00012200C0E9FF01C0EAFFEECF88F1010EBB
:10117A000024E96E000E0120EA6EEECF89F1010E1D
:10118A008A6FAEEC01F07A2BC0D67B2B43D51200C6
:10119A004A504B5C2DE2410E0101816F000E826FB5
:1011AA00230E836F846B010E856FAAEC02F0330E57
:1011BA000B6EBB0E0C6EDF0E0D6E0D2EFED70C2EB7
:1011CA00FCD70B2EFAD700000000820E816F0F0E9B
:1011DA00826F010E836F010E846F856B48EC02F0FB
:1011EA00005204E0816B80EC02F001D0EED75FD0B0
:1011FA004B504A5C2DE201014C0E816F000E826F4A
:10120A00230E836F846B010E856FAAEC02F0330EF6
:10121A000B6EBB0E0C6EDF0E0D6E0D2EFED70C2E56
:10122A00FCD70B2EFAD700000000820E816F0F0E3A
:10123A00826F010E836F010E846F856B48EC02F09A
:10124A00005204E0816B80EC02F001D0EED72FD07F
:10125A004A504B182CE10101550E816F000E826F26
:10126A00230E836F846B010E856FAAEC02F0330E96
:10127A000B6EBB0E0C6EDF0E0D6E0D2EFED70C2EF6
:10128A00FCD70B2EFAD700000000820E816F0F0EDA
:10129A00826F010E836F010E846F856B48EC02F03A
:1012AA00005204E0816B80EC02F001D0EED712000C
:1012BA0035EC02F00050010A01E0FAD779C181F158
:0A12CA007AC182F1EAEC03F0120091
:1012D400300E0001FF250101566F300E0125576FB6
:1012E400300E4A24586F300E4B24596F500E5A6FEB
:0212F4001200E6
:1012F60001017F6B806B7D5344E07D51FF0AD8A4CA
:101306007D0743EC02F00050000A01E1FAD73AECFF
:1013160002F000C07EF101017F517925E16E000ED9
:101326007A21E26E00C0E6FF7F2B80517B25E96EB5
:10133600000E7C21EA6EEE507E1902E1802B09D068
:10134600806B7BC1E9FF7CC1EAFFEE507E19D8B401
:10135600802B80517B25E96E000E7C21EA6EEE50D3
:10136600000A0EE180517F5D006E016A000E015A8F
:1013760000507925E16E01507A21E26EE66A06D0C8
:0E138600BAD779C1E1FF7AC1E2FFE66A120030
:10139400300E0101565D006E00C0FFF0300E575D47
:1013A400006E00C001F1300E585D4A6E300E595D7A
:0413B4004B6E12006A
:1013B8000101796BFFC0FBF001C1FDF0796B0F0EE5
:1013C800795DD8B082D0060E006E000E016E79C12C
:1013D80004F0000E056EFEEC00F0A60E0024E16E8F
:1013E800000E0120E26E020E0024E96E010E0120BB
:1013F800EA6EEECF00F000C0E6FF060E006E000EAB
:10140800016E79C104F0000E056EFEEC00F0A60E28
:101418000024026E000E0120036E010E0224E16E0C
:10142800000E0320E26E020E0026010E0122010EBC
:101438000024E96E000E0120EA6EEECFE6FF060EEC
:10144800006E000E016E79C104F0000E056EFEEC10
:1014580000F0A60E0024026E000E0120036E020E9C
:101468000224E16E000E0320E26E020E0026010E39
:101478000122020E0024E96E000E0120EA6EEECF72
:10148800E6FF060E006E000E016E79C104F0000E34
:10149800056EFEEC00F0A60E0024026E000E012080
:1014A800036E030E0224E16E000E0320E26E020EAC
:1014B8000026010E0122030E0024E96E000E012011
:0C14C800EA6EEECFE6FF792B7AD7120017
:1014D40035EC02F00050010A01E0FAD779C188F135
:0614E40023EC02F01200EF
:1014EA004A504B5C2DE2160E0101816F000E826F8D
:1014FA00230E836F846B010E856FAAEC02F0330E04
:10150A000B6EBB0E0C6EDF0E0D6E0D2EFED70C2E63
:10151A00FCD70B2EFAD700000000820E816F0F0E47
:10152A00826F010E836F010E846F856B48EC02F0A7
:10153A00005204E0816B80EC02F001D0EED75FD05C
:10154A004B504A5C2DE20101260E816F000E826F1C
:10155A00230E836F846B010E856FAAEC02F0330EA3
:10156A000B6EBB0E0C6EDF0E0D6E0D2EFED70C2E03
:10157A00FCD70B2EFAD700000000820E816F0F0EE7
:10158A00826F010E836F010E846F856B48EC02F047
:10159A00005204E0816B80EC02F001D0EED72FD02C
:1015AA004A504B182CE10101350E816F000E826FF3
:1015BA00230E836F846B010E856FAAEC02F0330E43
:1015CA000B6EBB0E0C6EDF0E0D6E0D2EFED70C2EA3
:1015DA00FCD70B2EFAD700000000820E816F0F0E87
:1015EA00826F010E836F010E846F856B48EC02F0E7
:1015FA00005204E0816B80EC02F001D0EED71200B9
:10160A0017EC0FF00101756B300E766F776B390EA0
:10161A00786F826A9480948220EC05F0816B80EC6A
:10162A0002F0B886B06ACF0EAF6EAC84F4EC04F068
:10163A000B0E0B6E260E0C6E5D0E0D6E0D2EFED76A
:10164A000C2EFCD70B2EFAD700000000D2EC05F0C6
:10165A00A2D20101816B80EC02F00101796BB2EC3C
:10166A0005F000C060F0005005083CE3630E01017C
:10167A00816F000E826F0F0E836F846B010E856F70
:10168A00AAEC02F00B0E0B6E260E0C6E5D0E0D6EA2
:10169A000D2EFED70C2EFCD70B2EFAD70000000019
:1016AA000101796BB2EC05F000C060F0820E010115
:1016BA00816F0F0E826F010E836F010E846F856B2F
:1016CA0048EC02F0005203E0010E346E06D0C80E58
:1016DA000001605D01E301D0E3D70101816B80EC79
:1016EA0002F04FD0FA0E0001605D43E36E0E010175
:1016FA00816F000E826F0F0E836F846B010E856FF0
:10170A00AAEC02F00B0E0B6E260E0C6E5D0E0D6E21
:10171A000D2EFED70C2EFCD70B2EFAD70000000098
:10172A000101796BB2EC05F000C060F0820E010194
:10173A00816F0F0E826F010E836F010E846F856BAE
:10174A0048EC02F0005206E0020E346E816B80EC27
:10175A0002F00AD000016051140805E30101816B0F
:10176A0080EC02F001D0DCD70101816B80EC02F041
:10177A0008D03450010A04E03450020A01E001D0D2
:10178A0001D06BD70101756B12D2020E0B6E040EDB
:10179A000C6EBA0E0D6E01010D2EFDD70C2EFBD765
:1017AA000B2EF9D70000816B80EC02F0D2EC05F029
:1017BA0056EC05F00101796BB2EC05F000C060F05F
:1017CA00FA0E005C19E3FEC088F1FFC089F101013D
:1017DA008A6BAEEC01F0816B020E826F010E836F91
:1017EA00DCEC02F0FEC088F1FFC089F1010E0101B4
:1017FA008A6FAEEC01F01CD000016051140818E3A6
:10180A00FEC088F1FFC089F101018A6BAEEC01F0DC
:10181A00816B010E826F010E836FDCEC02F0FEC059
:10182A0088F1FFC089F1010E01018A6FAEEC01F067
:10183A0004EC04F0010E796F05EC06F0F1EC05F00A
:10184A00000161510F0802E2616B40064050000A34
:10185A0003E19EDC346A06D00001612B542AA52BD1
:10186A00622BA8D7A4D1D2EC05F0020E0B6E040E9F
:10187A000C6EBA0E0D6E0D2EFED70C2EFCD70B2E4B
:10188A00FAD7000043EC02F00050000A1BE1010104
:10189A007A0E816F000E826F836B846B010E856FE7
:1018AA00AAEC02F0310E886F23EC02F043EC02F04E
:1018BA000050010A01E101D0EAD70101816B80ECF5
:1018CA0002F032D0940E816F000E826F836B846BAC
:1018DA00010E856FAAEC02F0310E886F23EC02F03C
:1018EA003AEC02F000C076F1820E0101816F0F0E10
:1018FA00826F010E836F010E846F856B48EC02F0D4
:10190A00005208E0330E886F23EC02F0010E010149
:10191A00756F07D07651330A03E1020E756F01D055
:10192A00DBD7816B80EC02F00B0E0B6E260E0C6E71
:10193A005D0E0D6E0D2EFED70C2EFCD70B2EFAD790
:10194A00000000007551010AD8A4B8D056EC05F081
:10195A00FEC088F1FFC089F1010E8A6FAEEC01F07A
:10196A0000C188F101C189F1010E8A6FAEEC01F064
:10197A000101796BB2EC05F000C060F0FA0E005C70
:10198A0019E3FEC088F1FFC089F101018A6BAEEC50
:10199A0001F0816B020E826F010E836FDCEC02F0A4
:1019AA00FEC088F1FFC089F1010E01018A6FAEEC19
:1019BA0001F01CD000016051050818E3FEC088F14F
:1019CA00FFC089F101018A6BAEEC01F0816B010E57
:1019DA00826F010E836FDCEC02F0FEC088F1FFC05B
:1019EA0089F1010E01018A6FAEEC01F043EC02F0BD
:1019FA000050000A01E1FAD73AEC02F00050310A2D
:101A0A001AE100C188F101C189F101018A6BAEECCA
:101A1A0001F0010E816F020E826F010E836FDCEC02
:101A2A0002F000C188F101C189F1010E01018A6F3A
:101A3A00AEEC01F01ED03AEC02F00050320A19E185
:101A4A0000C188F101C189F101018A6BAEEC01F094
:101A5A00010E816F010E826F010E836FDCEC02F0C2
:101A6A0000C188F101C189F1010E01018A6FAEEC52
:101A7A0001F00101010E796F05EC06F0F1EC05F0B9
:101A8A0024DC560E796F010E7A6F12DC35EC02F007
:101A9A000050010A01E0FAD700016151050802E28B
:101AAA00616B40064050000A06E178C179F10DDD0C
:101ABA0017DD346A03D00001612B5AD70101755131
:101ACA00020A68E156EC05F00101796BB2EC05F007
:101ADA0000C060F06CDCFA0E0001605D04E3310EB8
:101AEA000101776F0BD000016051050804E3320E43
:101AFA000101776F03D00101300E776F3AEC02F0E3
:101B0A000050390A03E1ECDC346A44D077C179F138
:101B1A00DCDC010E0101796F05EC06F043EC02F002
:101B2A000050000A01E1FAD70101560E796F010E41
:101B3A007A6FA30E7B6F000E7C6FFF0E7D6F7BECBE
:101B4A0009F0FEC088F1FFC089F18A6BAEEC01F0A2
:101B5A0000C188F101C189F18A6BAEEC01F015DC94
:101B6A00FEC088F1FFC089F1010E8A6FAEEC01F068
:101B7A0000C188F101C189F1010E8A6FAEEC01F052
:101B8A00F1EC05F000016151050802E2616B4006C3
:101B9A00612B9AD70CD03450000AD8B45AD5345095
:101BAA00010AD8B4F2D53450020AD8B45CD650D55A
:021BBA00FFD753
:101E2E0010EE15F0910E006E010E016E9C0EF66E08
:0E1E3E001D0EF76E000EF86E4EEC05F0120051
:101BBC00000000000000005F000000070007001498
:101BCC007F147F14242A7F2A122313086462364957
:101BDC005522500005030000001C22410000412248
:101BEC001C00082A1C2A0808083E0808005030006F
:101BFC000008080808080030300000201008040213
:101C0C003E5149453E00427F4000426151494621C8
:101C1C0041454B311814127F1027454545393C4A34
:101C2C004949300171090503364949493606494984
:101C3C00291E00363600000056360000000814221B
:101C4C004114141414144122140800020151090601
:101C5C00324979413E7E1111117E7F494949363E08
:101C6C00414141227F4141221C7F494949417F0921
:101C7C000901013E414151327F0808087F00417F34
:101C8C0041002040413F017F081422417F404040E9
:101C9C00407F0204027F7F0408107F3E4141413E99
:101CAC007F090909063E4151215E7F0919294646E3
:101CBC004949493101017F01013F4040403F1F200C
:101CCC0040201F7F2018207F6314081463030478BE
:101CDC000403615149454300007F4141020408104F
:101CEC002041417F0000040201020440404040407A
:101CFC00000102040020545454787F48444438387E
:101D0C0044444420384444487F3854545418087E82
:101D1C00090102081454543C7F0804047800447DE3
:101D2C0040002040443D00007F10284400417F408B
:101D3C00007C041804787C08040478384444443843
:101D4C007C14141408081414187C7C080404084827
:101D5C0054545420043F4440203C4040207C1C20E0
:101D6C0040201C3C4030403C44281028440C50502F
:101D7C00503C4464544C44000836410000007F0041
:101D8C0000004136080008082A1C08081C2A08080C
:011D9C000046
:0E1D9D00504C4159455220312057494E5300B9
:011DAB000037
:011DAC000036
:0E1DAD00504C4159455220322057494E5300A8
:011DBB000027
:0B1DBC004954275320412054494500A2
:011DC70040DB
:091DC800594F552057494E5300B4
:021DD100000010
:081DD30050432057494E530014
:011DDB000007
:0B1DDC00495427532041205449450082
:011DE70000FB
:011DE80000FA
:011DE90000F9
:0B1DEA006F6E6520706C6179657200FF
:0C1DF5006D756C7469706C61796572002A
:101E010057616974696E6720666F72206F746865C7
:091E11007220706C6179657200A9
:011E1A003097
:0F1E1B00507265737320746F207374617274005A
:021E2A00500066
:011E2C0000B5
:020000040030CA
:0E000000210C1F1EFF8381FF0FC00FE00F4079
:00000001FF
